:020000040800F2
:100000001007002089010008251600081D160008A9
:100010002116000891020008511600080000000097
:100020000000000000000000000000002D16000885
:10003000950200080000000029160008311600088B
:10004000A3010008A3010008A3010008A301000800
:10005000A3010008A3010008A3010008A3010008F0
:10006000A3010008A3010008A3010008A3010008E0
:10007000A3010008A3010008A3010008A3010008D0
:10008000A3010008A3010008A3010008A3010008C0
:10009000A3010008A3010008A3010008A3010008B0
:1000A000A3010008A3010008A3010008A3010008A0
:1000B0003916000845160008A3010008A30100082E
:1000C000A3010008A3010008A3010008A301000880
:1000D000A3010008A3010008A3010008A301000870
:1000E000A3010008A3010008A301000800F002F822
:1000F00000F03AF80AA090E8000C82448344AAF188
:100100000107DA4501D100F02FF8AFF2090EBAE885
:100110000F0013F0010F18BFFB1A43F0010318473B
:100120005C1700007C170000103A24BF78C878C123
:10013000FAD8520724BF30C830C144BF04680C60ED
:10014000704700000023002400250026103A28BF35
:1001500078C1FBD8520728BF30C148BF0B60704739
:100160001FB51FBD10B510BD00F058F81146FFF7C0
:10017000F7FF01F06FFA00F076F803B4FFF7F2FF33
:1001800003BC00F07DF8000009488047094800479B
:10019000FEE7FEE7FEE7FEE7FEE7FEE7FEE7FEE737
:1001A000FEE7FEE704480549054A064B7047000094
:1001B00035160008ED00000810010020100700208F
:1001C00010030020100300204FF0000200B513467A
:1001D00094469646203922BFA0E80C50A0E80C5067
:1001E000B1F12001BFF4F7AF090728BFA0E80C5018
:1001F00048BF0CC05DF804EB890028BF40F8042B11
:1002000008BF704748BF20F8022B11F0804F18BF7D
:1002100000F8012B7047704770477047754600F033
:100220002BF8AE4605006946534620F00700854688
:1002300018B020B5FFF7B6FFBDE820404FF000062C
:100240004FF000074FF000084FF0000BAC46ACE851
:10025000C009ACE8C009ACE8C009ACE8C00921F0AD
:1002600007018D46704710B50446AFF30080204665
:10027000BDE81040FFF781BF004870471000002024
:1002800001491820ABBEFEE72600020070470000BF
:10029000FEE70000704700002DE9F04F82B041F208
:1002A0000042C4F201020E680423904208BF0323F7
:1002B000002E009300F0F68040F20C4E4FF6FF7CCB
:1002C000C4F2010E00220124C1F2100C4FF0000A0A
:1002D0004FF0000943E000BF012502F00C040F2796
:1002E000A7402BEA070705FA04F43C4343F82640ED
:1002F000D1F804B040F20045C4F201055FEACB3307
:100300002B6854BF23EA080343EA08032B606B6899
:100310005FEA8B3454BF23EA080343EA08036B60A7
:100320005FEACB24AB6854BF23EA080343EA08031F
:100330005FEA8B24AB60DEF800304FF0010454BF5D
:1003400023EA080343EA0803CEF800300E680AF1F6
:10035000010A36FA0AF302F1040200F0A38004FA5B
:100360000AF816EA080FF1D04B68634512DC122B2D
:1003700056D8DFE803F0350B4549555555555555C9
:10038000555555555555554D510000BFD1F80C9058
:1003900046E000BF4FF6FF77C1F22107BB420FDCFA
:1003A0000027C1F21107BB421AD00027C1F2120781
:1003B000BB4215D00027C1F22107BB4210D02FE06D
:1003C0000027C1F22207BB420AD00027C1F2310741
:1003D000BB4205D00027C1F23207BB4220D100BF8B
:1003E0008B684BB1012B14BFC0F81480C0F810808B
:1003F0004FF0080914E000BF4FF0040910E000BFFF
:10040000CB6803F108090BE04FF0000908E000BFDA
:10041000CB6803F1040903E0CB6803F10C0900BFCA
:1004200013460546BAF1080F24BF203B04352E6859
:100430000F279F40BE4309FA03F333432B60CB7968
:10044000DB067FF583AF41F21804C4F2020423688F
:100450004FEA9A0643F001032360236840F6000444
:1004600003F001030193019B40F20043C4F2010336
:10047000A3F57E7353F826B0C4F20104A0420FD056
:1004800040F60044C4F20104A0423FF425AF41F21B
:100490000004C4F20104009DA04208BF02251CE72D
:1004A00000251AE702B0BDE8F08F0000002A08BF5F
:1004B000090401617047000040F20810C2F2000018
:1004C0000068704740F2000040F20811C2F20000DC
:1004D000C2F2000100780A6810440860704700000A
:1004E00080B542F20000C4F20200016841F0100140
:1004F0000160032000F082F80F2000F005F800F002
:1005000027F8002080BD000070B540F20006C2F25E
:10051000000640F208013278C2F200014FF47A730B
:100520000968B3FBF2F20446B1FBF2F1084600F0B1
:100530002FFB0F2C4FF0010508D838B94FF0FF30D2
:1005400021460022002500F02DF87460284670BD79
:1005500082B041F21800C4F20200016841F00101CA
:100560000160016801F0010101910199416841F0C8
:1005700080514160406800F080500090009802B0C7
:1005800070470000002848BF704700F01F0101229B
:1005900002FA01F14EF200124009CEF2000242F8D6
:1005A0002010704710B54EF60C5CCEF2000CDCF853
:1005B0000030C3F3022E8EF00704042C28BF04245D
:1005C000BEF103034FF0FF3E0EFA04F438BF0023E0
:1005D000A14399400EFA03F39A43114300F00F022E
:1005E000043A624409010C3200F16043B0F1FF3F6C
:1005F000C8BF03F56442117010BD00004EF60C51E7
:10060000CEF200010A684FF6FF031A4060F30A2297
:1006100042F0806040F0FD70086070472DE9F043C3
:1006200081B0002800F0858042F20008C4F2020880
:100630000446D8F800000D4600F0070088420CD2AE
:10064000D8F8000020F007002843C8F80000D8F8C8
:10065000000000F00700A8426BD1206841F20409B5
:100660008107C4F2020917D5410705D5D9F8001052
:1006700041F4E061C9F80010010705D5D9F8001070
:1006800041F46051C9F80010D9F80010A26821F0B7
:10069000F0011143C9F80010C00741D1D8F800009B
:1006A00000F00700A8420CD9D8F8000020F007009D
:1006B0002843C8F80000D8F8000000F00700A8425E
:1006C00037D12068410707D5D9F80010E26821F436
:1006D000E0611143C9F80010000708D5D9F80000FF
:1006E000216920F4605040EAC100C9F80000D9F83F
:1006F000002002F00C00082841F20020C0F27A002D
:1007000050D141F66C03C2F38341C0F60003595C3B
:10071000D2033BD440F60010C0F23D00484341E014
:10072000606802280AD001282AD159F8041C8903DC
:1007300008D4012001B0BDE8F08300BF59F8041CC3
:100740008901F6D5D9F8001021F003010843C9F852
:100750000000FFF7B1FE064641F28837D9F80000E5
:10076000616800F00C00B0EB810F97D0FFF7A4FE9A
:10077000801BB842F2D9032001B0BDE8F08300BF6E
:1007800059F8041C8907D4D5DCE700BFD9F800204C
:1007900041F65A03C2F34042C0F600039A5C484354
:1007A000B0FBF2F0D9F8001041F65C02C1F303117E
:1007B000C0F60002515C40F2080220FA01F140F25A
:1007C0000400C2F200000068C2F200021160FFF7EC
:1007D0009BFE002001B0BDE8F08300002DE9F04150
:1007E00082B0002868D00446007841F20006C007B5
:1007F000C4F2020625D0706800F00C0004281BD05B
:10080000706800F00C00082802D17068C00313D48F
:100810006068002800F06881B0F5A02F00F07C81AE
:10082000B0F5803F00F07C81306820F4803030608B
:10083000306820F4802076E13068800301D560685C
:10084000D0B32078800718D5706810F00C0F07D04F
:10085000706800F00C0008286ED17068C0036BD47B
:100860003068800702D52069012825D13068616988
:1008700020F0F80040EAC1003060207800071FD463
:100880002078400732D4E56995B1706800F00C001B
:10089000082840F08F80012D0ED07068216A00F486
:1008A00080328A4208D1616A00F47010884203D114
:1008B000002002B0BDE8F081012002B0BDE8F08167
:1008C000A069002862D00020C4F242200121C0F8B3
:1008D0008014FFF7F1FD0546706A800700F18C80F7
:1008E000FFF7EAFD401B0228F6D92AE1F06910F073
:1008F000805808D1F06940F08050F061F06900F054
:1009000080500090009847F20007C4F20007386852
:10091000C00529D4386840F480703860FFF7CCFDFA
:10092000054600BF3868C0051ED4FFF7C5FD401B53
:100930006428F7D905E100BF2069002840F20000D3
:10094000C4F2422000F0828001210160FFF7B4FD73
:10095000054600BF306880073FF588AFFFF7ACFD64
:10096000401B0228F6D9ECE0E068002800F0808007
:10097000052800F09780012800F09880306A20F068
:1009800001003062306A20F0040092E00020C4F2DE
:1009900042200021C0F88014FFF78EFD054600BFFD
:1009A000706A80077FF56CAFFFF786FD401B022859
:1009B000F6D9C6E00027C4F2422700203866FFF7C8
:1009C0007BFD022D05460BD13068800140F1BE80D1
:1009D000FFF772FD401B02284FF00300F4D968E7CF
:1009E000306880017FF564AFFFF766FD401B022889
:1009F0004FF00300F4D95CE740F20800C2F20000B7
:100A0000006844F6D351C1F26201A0FB0101480A1B
:100A1000019000BF00BF0198411E002801913FF4E2
:100A20002FAF00BF0198411E002801913FF428AF6D
:100A300000BF0198411E002801913FF421AF00BF83
:100A40000198411E00280191E4D119E700210160BD
:100A5000FFF732FD054600BF306880077FF50DAF18
:100A6000FFF72AFD401B02284FF00300F4D920E7CE
:100A7000306A20F001003062306A20F004003062F9
:100A8000FFF71AFD054641F2883700BF306A80073C
:100A900020D5FFF711FD401BB8424FF00300F5D9F8
:100AA00007E700BF306A40F004003062306A40F06F
:100AB00001003062FFF700FD054641F2883700BFB4
:100AC000306A800706D4FFF7F7FC401BB842F7D91D
:100AD00037E000BFB8F1000F7FF4D5AEF06920F029
:100AE0008050F061CFE600BF306820F48030306085
:100AF000306820F480203060FFF7DEFC054600BF40
:100B0000306880037FF59DAEFFF7D6FC401B64285C
:100B10004FF00300F4D9CCE6306840F48020306018
:100B2000306840F480303060FFF7C6FC054600BFF7
:100B3000306880033FF585AEFFF7BEFC401B64289C
:100B4000F6D9032002B0BDE8F08100BF206AB0F5FD
:100B5000803F05D17168A26821F4003111437160B2
:100B60007168626A21F474111043084370600120B7
:100B70003866FFF7A1FC0446306880013FF598AE67
:100B8000FFF79AFC001B02284FF00300F4D990E60F
:100B9000411E0020B0EB116F1CBF012070474EF2C8
:100BA0001002CEF2000251604EF62351CEF2000147
:100BB000F0230B70072190601160704770470000B0
:100BC0007047000010B590F83C20012A4FF0020257
:100BD00033D080F83D200268D2F804E0D2F808C093
:100BE0000C682EF07003234340F2FF74C4F200043B
:100BF000A24253600ADCB2F1804F13D040F20043AE
:100C0000C4F200039A420DD011E000BF42F6004347
:100C1000C4F201039A4205D040F60003C4F2000377
:100C20009A4204D149682CF0800319439160012154
:100C3000002280F83D1080F83C20104610BD0000D6
:100C4000002804BF0120704710B5044690F83D000D
:100C500028B9002084F83C00204600F067F8022004
:100C600084F83D00206840F2FF730268C4F200037C
:100C700042F6004C9842C4F2010C15DCB0F1804FF2
:100C80001AD040F20041C4F20001884214D09842C8
:100C900018DCB0F1804F1DD040F20041C4F20001D9
:100CA000884217D01AE000BF604505D040F6000129
:100CB000C4F200018842EAD1A16822F070020A431E
:100CC0009842E6DD604505D040F60001C4F200011F
:100CD000884203D1216922F440720A43A36922F0B9
:100CE0008001D4F804E0E268194360450160C26203
:100CF000C0F828E002D16169CCF8301001214161CF
:100D0000002084F8461084F83E1084F83F1084F8E0
:100D1000401084F8411084F8421084F8431084F89D
:100D2000441084F8451084F83D1010BD80B586B09D
:100D3000006840F20042C4F2000200219042059196
:100D400032D0B0F1804F2CD141F21C00C4F202002D
:100D5000016841F001010160016801F001010191A8
:100D6000019950F8041C41F0040140F8041C50F8AB
:100D7000040C02A900F004000190019801200290E7
:100D80000020CDE9030040F60000C4F20100FFF7A7
:100D900083FA1C2000210022FFF704FC1C20FFF72F
:100DA000F1FB06B080BD00BF41F21C00C4F202009E
:100DB0000168002241F0020101600068002100F09A
:100DC0000200019001981D20FFF7ECFB1D2006B0EA
:100DD000BDE88040FFF7D6BB90F83D1001291CBF4D
:100DE00001207047022180F83D10006840F2FF7238
:100DF000C168C4F20002904241F00101C16009DC07
:100E0000B0F1804F12D040F20041C4F2000188429C
:100E10000CD012E042F60041C4F20101884205D034
:100E200040F60001C4F20001884206D1816801F059
:100E30000701062904BF00207047016841F0010145
:100E4000016000207047000080B590F83C20012A26
:100E50004FF0020200F0BF8080F83D20D0F800C0C3
:100E60004FF67772DCF8083023EA0202CCF808204B
:100E70000B683F2B1CDD5F2B20DD602B50D0B3F5C2
:100E8000005F6DD0702B40F0A080D1E901E3C9680C
:100E9000DCF8082043EA0E0322F47F4243EA0121F2
:100EA0001143CCF80810DCF8081041F077018AE013
:100EB0001F2B29DC63B3102B2AD086E0402B63D094
:100EC000502B40F08280D1F804E0C968DCF8203073
:100ED000DCF8202022F00102CCF82020DCF81820D9
:100EE00022F0F00242EA011123F00A0242EA0E0265
:100EF000CCF81810CCF82020DCF8081041F057018D
:100F000021F020015FE000BF202B01D0302B5CD10D
:100F1000DCF8081021F07001194341F0070152E09C
:100F2000D1F804E0C968DCF8203023F01003CCF8D5
:100F30002030DCF81830DCF8202023F4704322F055
:100F4000A00243EA013142EA0E12CCF81810CCF8A4
:100F50002020DCF8081041F0670121F0100132E098
:100F6000D1E901E3C968DCF8082043EA0E0322F462
:100F70007F4243EA01211143CCF80810DCF8081045
:100F800041F480411FE000BFD1F804E0C968DCF8FB
:100F90002030DCF8202022F00102CCF82020DCF800
:100FA000182022F0F00242EA011123F00A0242EA7C
:100FB0000E02CCF81810CCF82020DCF8081041F014
:100FC000470121F03001CCF808100121002280F8FF
:100FD0003D1080F83C20104680BD00002DE9F04116
:100FE0000168B1F1804F01D0BDE8F081007F012898
:100FF000FAD140F27007C2F2000707F108044FF679
:10100000E04840F2244520460021CFF6FF78C4F2A4
:101010000005002600F0E6FA38602046042100F0C2
:10102000E1FA78604FF60040CFF6FF702E507868F6
:10103000A0F63C71B1F5C87F12D83968A8EB000260
:101040001144B1F5C87F0BD840F60040C4F201004E
:101050004FF400410122FFF729FA00202860786848
:10106000A0F51671B1F5C87FBED83968A8EB0000AD
:101070000844B0F5C87F88BFBDE8F08140F6004065
:10108000C4F201004FF480410122FFF70FFA002063
:101090002860BDE8F0810000F0B590F83C30012BED
:1010A00004BF0220F0BD082A20D0042A3CD0002A28
:1010B0005AD10368D1E900C5D1F80CE01A6A40F2B0
:1010C000FF7722F001021A621A4652F8186F1C6A62
:1010D000C4F20007BB426BDCB3F1804F74D040F226
:1010E0000047C4F20007BB426ED087E00768D1E931
:1010F00000C5D1E902313A6A61F3071522F4807222
:101100003A623A4652F81C4F3E6A24F0F30445EA2C
:101110000401CCF3560565F3492611603E6211685F
:1011200021F00C01116060E00368D1E900E6D1E92B
:1011300002C11A6A360222F010021A621A4652F8E6
:10114000184F4FF2FF071D6ABE4324F4734461F346
:101150000F3646EA040125F0A0040EF00A0744EA1F
:10116000071711601F621CE00368D1E900E6D1E9AE
:1011700002C11A6A360222F480521A621A4652F8E2
:101180001C4F4FF2FF071D6ABE4324F4734461F302
:101190000F36CEF3520746EA040167F34D3511606E
:1011A0001D6211684FEA0C2321F4406111601CE0BC
:1011B00042F60047C4F20107BB4205D040F60007E3
:1011C000C4F20007BB4219D126F00306354324F0D0
:1011D0000A070CF00A066EF3071537449D611F627B
:1011E0009F6927F00C079F618B6811681943116094
:1011F000002180F83C100846F0BD00BF46F0010514
:10120000E5E70000002804BF0120704710B5044640
:1012100090F83D0028B9002084F83C00204600F0FA
:1012200067F8022084F83D00206840F2FF730268EE
:10123000C4F2000342F6004C9842C4F2010C15DCE3
:10124000B0F1804F1AD040F20041C4F20001884250
:1012500014D0984218DCB0F1804F1DD040F200410C
:10126000C4F20001884217D01AE000BF604505D0E3
:1012700040F60001C4F200018842EAD1A16822F0E0
:1012800070020A439842E6DD604505D040F6000151
:10129000C4F20001884203D1216922F440720A435A
:1012A000A36922F08001D4F804E0E26819436045A4
:1012B0000160C262C0F828E002D16169CCF8301048
:1012C00001214161002084F8461084F83E1084F822
:1012D0003F1084F8401084F8411084F8421084F8DC
:1012E000431084F8441084F8451084F83D1010BD74
:1012F0007047000061B1082916D0042919BF00F118
:10130000410200F1450300F13F0200F143030FE009
:1013100090F83E2090F84230012A4FF0010208BFB9
:10132000012B1BD01046704700F1400200F144032E
:1013300012781B78012A4FF0010208BF012BF1D16E
:101340000222082914D0042924D180F83F2080F8F3
:1013500043204FEAB102032A12D923E0022280F887
:101360003E2080F842204FEAB102032A08D919E052
:1013700080F8402080F844204FEAB102032A11D8B7
:10138000DFE802F00212181E0068C26842F0020292
:101390001AE000BF80F8412080F845204FEAB102F2
:1013A000032AEDD9006810E00068C26842F0040228
:1013B0000AE000BF0068C26842F0080204E000BF13
:1013C0000068C26842F01002C26001F01F010122F1
:1013D000036A02FA01F123EA01020262026A11437E
:1013E00040F2FF72C4F20002904201620ADCB0F1E6
:1013F000804F13D040F20041C4F2000188420DD06A
:1014000013E000BF42F60041C4F20101884205D05A
:1014100040F60001C4F20001884206D1816801F063
:101420000701062904BF002070470168002241F02F
:10143000010101601046704710B501680446086953
:10144000800744BFC8685FEA807039D408694007E4
:1014500044BFC8685FEA40703ED40869000744BFD3
:10146000C8685FEA007045D40869C00644BFC86810
:101470005FEAC0604AD40869C0071CBFC8685FEA59
:10148000C07051D10869000644BFC8685FEA0060B7
:1014900052D40869400644BFC8685FEA406053D42C
:1014A0000869800646BFC8685FEA806010BD6FF0BB
:1014B000200220460A61BDE81040FFF781BB00BF53
:1014C0006FF002000861012020778869800743D00F
:1014D0002046FFF783FD45E06FF00400086102201D
:1014E0002077886910F4407F40D02046FFF776FDD2
:1014F00042E000BF6FF00800086104202077C8694F
:1015000080073DD02046FFF769FD3FE06FF01000F7
:10151000086108202077C86910F4407F3AD020463F
:10152000FFF75CFD3CE000BF6FF001000861204662
:1015300000F03EF82168A5E76FF0800008612046C2
:10154000FFF73CFB2168A4E76FF0400008612046EC
:1015500000F062F82168A3E7204600F025F8204655
:1015600000F024F82168002020776FE7204600F083
:101570001BF8204600F01AF82168002020776CE75D
:10158000204600F011F8204600F010F821680020F5
:10159000207769E7204600F007F8204600F006F8BB
:1015A00021680020207766E7704700007047000040
:1015B00010B540F60044C4F201040068A4F584317B
:1015C000884218BF10BD20464FF480410022FEF72C
:1015D0006DFF20464FF400410022BDE81040FEF7A9
:1015E00065BF00004FEAB101032984BF00207047A6
:1015F000DFE801F0020E060A006834300068704728
:1016000000683C30006870470068403000687047F0
:10161000006838300068704770470000FEE700003F
:10162000FEE70000FEE70000704700007047000082
:10163000FEF748BF7047000040F27800C2F2000099
:10164000FFF7FABE40F2C000C2F20000FFF7F4BE9E
:10165000FEE7000092B0FEF743FF06AC201D2421F8
:10166000FEF7B2FD0220069001200A9010200B9098
:10167000002520460D95FFF7B1F828B1EFF3108053
:1016800072B600BFFEE700BF0F20CDE90005684637
:101690000021CDE902550495FEF7C0FF20B1EFF31C
:1016A000108072B6FEE700BF41F21800C4F20200DB
:1016B000016840F6004541F0040101600168C4F290
:1016C000010501F00401069106990168002241F02C
:1016D0000801016000684FF4404100F008000690E6
:1016E000069828464FF440460024FEF7DFFE01200E
:1016F000CDE907040220099006A928460696FEF7C0
:10170000CBFD40F27006C2F200064FF08041304639
:1017100040F8081F4F2142F210720994CDE90744A6
:10172000CDE91044C0E90114C0E903248461FFF746
:1017300087FA28B1EFF3108072B600BFFEE700BF52
:101740004FF4805006F10804069006A92046FFF7E2
:101750007BFB28B1EFF3108072B600BFFEE700BF3D
:101760002046FFF74FFD28B1EFF3108072B600BF9F
:10177000FEE700BF10A92046FFF724FA20B1EFF3DF
:10178000108072B6FEE700BF0120022601900027FC
:101790006946204600220096CDE90277FFF77CFCDF
:1017A00020B1EFF3108072B6FEE700BF6946204615
:1017B0000422CDE90076FFF76FFC28B1EFF310802B
:1017C00072B600BFFEE700BF40F2C0000021A5F5E1
:1017D0008432C2F200004F2342F210770991CDE922
:1017E0000711CDE90011C0E90023C0E9021701612A
:1017F0008161FFF725FA28B1EFF3108072B600BFC0
:10180000FEE700BF4FF48050069040F2C000C2F2E5
:10181000000006A9FFF718FB20B1EFF3108072B6A5
:10182000FEE700BF40F2C000C2F200006946FFF7C9
:10183000C9F918B1EFF3108072B6FEE72046002117
:10184000FFF758FD20460421FFF754FD40F2C00089
:10185000C2F20000FFF7C0FAFEE70102000000003C
:101860000000000001020304060708090203040542
:10187000060708090A0B0C0D0E0F1010A01800081F
:10188000000000201000000028010008B018000827
:1018900010000020000700004401000800000000C4
:1018A00001000000100000000024F400000000000F
:04000005080000ED02
:00000001FF
